{
  "_format": "hh-sol-artifact-1",
  "contractName": "Products",
  "sourceName": "contracts/Products.sol",
  "abi": [
    {
      "inputs": [],
      "stateMutability": "nonpayable",
      "type": "constructor"
    },
    {
      "inputs": [
        {
          "internalType": "address",
          "name": "unit",
          "type": "address"
        }
      ],
      "name": "addManufacturer",
      "outputs": [],
      "stateMutability": "nonpayable",
      "type": "function"
    },
    {
      "inputs": [
        {
          "internalType": "string",
          "name": "productHash",
          "type": "string"
        },
        {
          "internalType": "address",
          "name": "company",
          "type": "address"
        }
      ],
      "name": "addProduct",
      "outputs": [],
      "stateMutability": "nonpayable",
      "type": "function"
    },
    {
      "inputs": [
        {
          "internalType": "address",
          "name": "salesmanAddress",
          "type": "address"
        }
      ],
      "name": "addSalesman",
      "outputs": [],
      "stateMutability": "nonpayable",
      "type": "function"
    },
    {
      "inputs": [
        {
          "internalType": "address",
          "name": "company",
          "type": "address"
        },
        {
          "internalType": "string",
          "name": "productHash",
          "type": "string"
        }
      ],
      "name": "checkProduct",
      "outputs": [
        {
          "internalType": "bool",
          "name": "",
          "type": "bool"
        }
      ],
      "stateMutability": "view",
      "type": "function"
    },
    {
      "inputs": [
        {
          "internalType": "address",
          "name": "company",
          "type": "address"
        }
      ],
      "name": "registerCompany",
      "outputs": [],
      "stateMutability": "nonpayable",
      "type": "function"
    },
    {
      "inputs": [
        {
          "internalType": "address",
          "name": "company",
          "type": "address"
        },
        {
          "internalType": "string",
          "name": "productHash",
          "type": "string"
        }
      ],
      "name": "removeProduct",
      "outputs": [],
      "stateMutability": "nonpayable",
      "type": "function"
    },
    {
      "inputs": [
        {
          "internalType": "address",
          "name": "salesmanAddress",
          "type": "address"
        }
      ],
      "name": "removeSalesman",
      "outputs": [],
      "stateMutability": "nonpayable",
      "type": "function"
    }
  ],
  "bytecode": "0x6080604052348015600f57600080fd5b50336000806101000a81548173ffffffffffffffffffffffffffffffffffffffff021916908373ffffffffffffffffffffffffffffffffffffffff160217905550610fb38061005f6000396000f3fe608060405234801561001057600080fd5b506004361061007d5760003560e01c80639cabed9a1161005b5780639cabed9a146100d6578063a2156610146100f2578063a5fef05714610122578063b278dc7d1461013e5761007d565b806356229465146100825780635f8a5afa1461009e5780638597f61b146100ba575b600080fd5b61009c60048036038101906100979190610aa9565b61015a565b005b6100b860048036038101906100b39190610b05565b6102a2565b005b6100d460048036038101906100cf9190610b05565b6103cd565b005b6100f060048036038101906100eb9190610b05565b61052c565b005b61010c60048036038101906101079190610b32565b610657565b6040516101199190610ba9565b60405180910390f35b61013c60048036038101906101379190610b05565b6106ca565b005b61015860048036038101906101539190610b32565b6107b2565b005b60011515600260008373ffffffffffffffffffffffffffffffffffffffff1673ffffffffffffffffffffffffffffffffffffffff16815260200190815260200160002060003373ffffffffffffffffffffffffffffffffffffffff1673ffffffffffffffffffffffffffffffffffffffff16815260200190815260200160002060009054906101000a900460ff1615151461022a576040517f08c379a000000000000000000000000000000000000000000000000000000000815260040161022190610c47565b60405180910390fd5b6001600360008373ffffffffffffffffffffffffffffffffffffffff1673ffffffffffffffffffffffffffffffffffffffff168152602001908152602001600020836040516102799190610cd8565b908152602001604051809103902060006101000a81548160ff0219169083151502179055505050565b60011515600160003373ffffffffffffffffffffffffffffffffffffffff1673ffffffffffffffffffffffffffffffffffffffff16815260200190815260200160002060009054906101000a900460ff16151514610335576040517f08c379a000000000000000000000000000000000000000000000000000000000815260040161032c90610d61565b60405180910390fd5b6001600260003373ffffffffffffffffffffffffffffffffffffffff1673ffffffffffffffffffffffffffffffffffffffff16815260200190815260200160002060008373ffffffffffffffffffffffffffffffffffffffff1673ffffffffffffffffffffffffffffffffffffffff16815260200190815260200160002060006101000a81548160ff02191690831515021790555050565b60011515600460003373ffffffffffffffffffffffffffffffffffffffff1673ffffffffffffffffffffffffffffffffffffffff16815260200190815260200160002060008373ffffffffffffffffffffffffffffffffffffffff1673ffffffffffffffffffffffffffffffffffffffff16815260200190815260200160002060009054906101000a900460ff1615151461049d576040517f08c379a000000000000000000000000000000000000000000000000000000000815260040161049490610df3565b60405180910390fd5b600460003373ffffffffffffffffffffffffffffffffffffffff1673ffffffffffffffffffffffffffffffffffffffff16815260200190815260200160002060008273ffffffffffffffffffffffffffffffffffffffff1673ffffffffffffffffffffffffffffffffffffffff16815260200190815260200160002060006101000a81549060ff021916905550565b60011515600160003373ffffffffffffffffffffffffffffffffffffffff1673ffffffffffffffffffffffffffffffffffffffff16815260200190815260200160002060009054906101000a900460ff161515146105bf576040517f08c379a00000000000000000000000000000000000000000000000000000000081526004016105b690610e5f565b60405180910390fd5b6001600460003373ffffffffffffffffffffffffffffffffffffffff1673ffffffffffffffffffffffffffffffffffffffff16815260200190815260200160002060008373ffffffffffffffffffffffffffffffffffffffff1673ffffffffffffffffffffffffffffffffffffffff16815260200190815260200160002060006101000a81548160ff02191690831515021790555050565b6000600360008473ffffffffffffffffffffffffffffffffffffffff1673ffffffffffffffffffffffffffffffffffffffff168152602001908152602001600020826040516106a69190610cd8565b908152602001604051809103902060009054906101000a900460ff16905092915050565b60008054906101000a900473ffffffffffffffffffffffffffffffffffffffff1673ffffffffffffffffffffffffffffffffffffffff163373ffffffffffffffffffffffffffffffffffffffff1614610758576040517f08c379a000000000000000000000000000000000000000000000000000000000815260040161074f90610ecb565b60405180910390fd5b60018060008373ffffffffffffffffffffffffffffffffffffffff1673ffffffffffffffffffffffffffffffffffffffff16815260200190815260200160002060006101000a81548160ff02191690831515021790555050565b60011515600460008473ffffffffffffffffffffffffffffffffffffffff1673ffffffffffffffffffffffffffffffffffffffff16815260200190815260200160002060003373ffffffffffffffffffffffffffffffffffffffff1673ffffffffffffffffffffffffffffffffffffffff16815260200190815260200160002060009054906101000a900460ff16151514610882576040517f08c379a000000000000000000000000000000000000000000000000000000000815260040161087990610f5d565b60405180910390fd5b600360008373ffffffffffffffffffffffffffffffffffffffff1673ffffffffffffffffffffffffffffffffffffffff168152602001908152602001600020816040516108cf9190610cd8565b908152602001604051809103902060006101000a81549060ff02191690555050565b6000604051905090565b600080fd5b600080fd5b600080fd5b600080fd5b6000601f19601f8301169050919050565b7f4e487b7100000000000000000000000000000000000000000000000000000000600052604160045260246000fd5b6109588261090f565b810181811067ffffffffffffffff8211171561097757610976610920565b5b80604052505050565b600061098a6108f1565b9050610996828261094f565b919050565b600067ffffffffffffffff8211156109b6576109b5610920565b5b6109bf8261090f565b9050602081019050919050565b82818337600083830152505050565b60006109ee6109e98461099b565b610980565b905082815260208101848484011115610a0a57610a0961090a565b5b610a158482856109cc565b509392505050565b600082601f830112610a3257610a31610905565b5b8135610a428482602086016109db565b91505092915050565b600073ffffffffffffffffffffffffffffffffffffffff82169050919050565b6000610a7682610a4b565b9050919050565b610a8681610a6b565b8114610a9157600080fd5b50565b600081359050610aa381610a7d565b92915050565b60008060408385031215610ac057610abf6108fb565b5b600083013567ffffffffffffffff811115610ade57610add610900565b5b610aea85828601610a1d565b9250506020610afb85828601610a94565b9150509250929050565b600060208284031215610b1b57610b1a6108fb565b5b6000610b2984828501610a94565b91505092915050565b60008060408385031215610b4957610b486108fb565b5b6000610b5785828601610a94565b925050602083013567ffffffffffffffff811115610b7857610b77610900565b5b610b8485828601610a1d565b9150509250929050565b60008115159050919050565b610ba381610b8e565b82525050565b6000602082019050610bbe6000830184610b9a565b92915050565b600082825260208201905092915050565b7f4f6e6c792061206d616e75666163747572696e6720756e69742063616e20616460008201527f642070726f647563747300000000000000000000000000000000000000000000602082015250565b6000610c31602a83610bc4565b9150610c3c82610bd5565b604082019050919050565b60006020820190508181036000830152610c6081610c24565b9050919050565b600081519050919050565b600081905092915050565b60005b83811015610c9b578082015181840152602081019050610c80565b60008484015250505050565b6000610cb282610c67565b610cbc8185610c72565b9350610ccc818560208601610c7d565b80840191505092915050565b6000610ce48284610ca7565b915081905092915050565b7f4f6e6c792061207265676973746572656420636f6d70616e792063616e20616460008201527f64206d616e756661637475726572730000000000000000000000000000000000602082015250565b6000610d4b602f83610bc4565b9150610d5682610cef565b604082019050919050565b60006020820190508181036000830152610d7a81610d3e565b9050919050565b7f4f6e6c792074686520636f6d70616e792063616e2072656d6f7665206974732060008201527f73616c65736d656e000000000000000000000000000000000000000000000000602082015250565b6000610ddd602883610bc4565b9150610de882610d81565b604082019050919050565b60006020820190508181036000830152610e0c81610dd0565b9050919050565b7f4f6e6c79206120636f6d70616e792063616e206164642073616c65736d656e00600082015250565b6000610e49601f83610bc4565b9150610e5482610e13565b602082019050919050565b60006020820190508181036000830152610e7881610e3c565b9050919050565b7f4f6e6c7920746865206f776e65722063616e2061646420636f6d70616e696573600082015250565b6000610eb5602083610bc4565b9150610ec082610e7f565b602082019050919050565b60006020820190508181036000830152610ee481610ea8565b9050919050565b7f4f6e6c7920616e20617574686f72697a65642073616c65736d616e2063616e2060008201527f72656d6f76652070726f64756374730000000000000000000000000000000000602082015250565b6000610f47602f83610bc4565b9150610f5282610eeb565b604082019050919050565b60006020820190508181036000830152610f7681610f3a565b905091905056fea2646970667358221220e1dc4d393574823c9d2daebac1c78417654a07bb69007be7c6d8f75e9cbb851964736f6c634300081c0033",
  "linkReferences": {},
  "deployedLinkReferences": {}
}