{
  "_format": "hh-sol-artifact-1",
  "contractName": "Products",
  "sourceName": "contracts/Products.sol",
  "abi": [
    {
      "inputs": [],
      "stateMutability": "nonpayable",
      "type": "constructor"
    },
    {
      "inputs": [
        {
          "internalType": "address",
          "name": "unit",
          "type": "address"
        }
      ],
      "name": "addManufacturer",
      "outputs": [],
      "stateMutability": "nonpayable",
      "type": "function"
    },
    {
      "inputs": [
        {
          "internalType": "string",
          "name": "productHash",
          "type": "string"
        },
        {
          "internalType": "address",
          "name": "company",
          "type": "address"
        }
      ],
      "name": "addProduct",
      "outputs": [],
      "stateMutability": "nonpayable",
      "type": "function"
    },
    {
      "inputs": [
        {
          "internalType": "address",
          "name": "salesmanAddress",
          "type": "address"
        }
      ],
      "name": "addSalesman",
      "outputs": [],
      "stateMutability": "nonpayable",
      "type": "function"
    },
    {
      "inputs": [
        {
          "internalType": "address",
          "name": "company",
          "type": "address"
        },
        {
          "internalType": "string",
          "name": "productHash",
          "type": "string"
        }
      ],
      "name": "checkProduct",
      "outputs": [
        {
          "internalType": "bool",
          "name": "",
          "type": "bool"
        }
      ],
      "stateMutability": "view",
      "type": "function"
    },
    {
      "inputs": [
        {
          "internalType": "address",
          "name": "company",
          "type": "address"
        }
      ],
      "name": "registerCompany",
      "outputs": [],
      "stateMutability": "nonpayable",
      "type": "function"
    },
    {
      "inputs": [
        {
          "internalType": "address",
          "name": "company",
          "type": "address"
        },
        {
          "internalType": "string",
          "name": "productHash",
          "type": "string"
        }
      ],
      "name": "removeProduct",
      "outputs": [],
      "stateMutability": "nonpayable",
      "type": "function"
    },
    {
      "inputs": [
        {
          "internalType": "address",
          "name": "salesmanAddress",
          "type": "address"
        }
      ],
      "name": "removeSalesman",
      "outputs": [],
      "stateMutability": "nonpayable",
      "type": "function"
    }
  ],
  "bytecode": "0x6080604052348015600f57600080fd5b50336000806101000a81548173ffffffffffffffffffffffffffffffffffffffff021916908373ffffffffffffffffffffffffffffffffffffffff1602179055506110f48061005f6000396000f3fe608060405234801561001057600080fd5b506004361061007d5760003560e01c80639cabed9a1161005b5780639cabed9a146100d6578063a2156610146100f2578063a5fef05714610122578063b278dc7d1461013e5761007d565b806356229465146100825780635f8a5afa1461009e5780638597f61b146100ba575b600080fd5b61009c60048036038101906100979190610b58565b61015a565b005b6100b860048036038101906100b39190610bb4565b6102a2565b005b6100d460048036038101906100cf9190610bb4565b6103cd565b005b6100f060048036038101906100eb9190610bb4565b61052c565b005b61010c60048036038101906101079190610be1565b610657565b6040516101199190610c58565b60405180910390f35b61013c60048036038101906101379190610bb4565b6106ca565b005b61015860048036038101906101539190610be1565b6107b2565b005b60011515600260008373ffffffffffffffffffffffffffffffffffffffff1673ffffffffffffffffffffffffffffffffffffffff16815260200190815260200160002060003373ffffffffffffffffffffffffffffffffffffffff1673ffffffffffffffffffffffffffffffffffffffff16815260200190815260200160002060009054906101000a900460ff1615151461022a576040517f08c379a000000000000000000000000000000000000000000000000000000000815260040161022190610cf6565b60405180910390fd5b6001600360008373ffffffffffffffffffffffffffffffffffffffff1673ffffffffffffffffffffffffffffffffffffffff168152602001908152602001600020836040516102799190610d87565b908152602001604051809103902060006101000a81548160ff0219169083151502179055505050565b60011515600160003373ffffffffffffffffffffffffffffffffffffffff1673ffffffffffffffffffffffffffffffffffffffff16815260200190815260200160002060009054906101000a900460ff16151514610335576040517f08c379a000000000000000000000000000000000000000000000000000000000815260040161032c90610e10565b60405180910390fd5b6001600260003373ffffffffffffffffffffffffffffffffffffffff1673ffffffffffffffffffffffffffffffffffffffff16815260200190815260200160002060008373ffffffffffffffffffffffffffffffffffffffff1673ffffffffffffffffffffffffffffffffffffffff16815260200190815260200160002060006101000a81548160ff02191690831515021790555050565b60011515600460003373ffffffffffffffffffffffffffffffffffffffff1673ffffffffffffffffffffffffffffffffffffffff16815260200190815260200160002060008373ffffffffffffffffffffffffffffffffffffffff1673ffffffffffffffffffffffffffffffffffffffff16815260200190815260200160002060009054906101000a900460ff1615151461049d576040517f08c379a000000000000000000000000000000000000000000000000000000000815260040161049490610ea2565b60405180910390fd5b600460003373ffffffffffffffffffffffffffffffffffffffff1673ffffffffffffffffffffffffffffffffffffffff16815260200190815260200160002060008273ffffffffffffffffffffffffffffffffffffffff1673ffffffffffffffffffffffffffffffffffffffff16815260200190815260200160002060006101000a81549060ff021916905550565b60011515600160003373ffffffffffffffffffffffffffffffffffffffff1673ffffffffffffffffffffffffffffffffffffffff16815260200190815260200160002060009054906101000a900460ff161515146105bf576040517f08c379a00000000000000000000000000000000000000000000000000000000081526004016105b690610f0e565b60405180910390fd5b6001600460003373ffffffffffffffffffffffffffffffffffffffff1673ffffffffffffffffffffffffffffffffffffffff16815260200190815260200160002060008373ffffffffffffffffffffffffffffffffffffffff1673ffffffffffffffffffffffffffffffffffffffff16815260200190815260200160002060006101000a81548160ff02191690831515021790555050565b6000600360008473ffffffffffffffffffffffffffffffffffffffff1673ffffffffffffffffffffffffffffffffffffffff168152602001908152602001600020826040516106a69190610d87565b908152602001604051809103902060009054906101000a900460ff16905092915050565b60008054906101000a900473ffffffffffffffffffffffffffffffffffffffff1673ffffffffffffffffffffffffffffffffffffffff163373ffffffffffffffffffffffffffffffffffffffff1614610758576040517f08c379a000000000000000000000000000000000000000000000000000000000815260040161074f90610f7a565b60405180910390fd5b60018060008373ffffffffffffffffffffffffffffffffffffffff1673ffffffffffffffffffffffffffffffffffffffff16815260200190815260200160002060006101000a81548160ff02191690831515021790555050565b60011515600460008473ffffffffffffffffffffffffffffffffffffffff1673ffffffffffffffffffffffffffffffffffffffff16815260200190815260200160002060003373ffffffffffffffffffffffffffffffffffffffff1673ffffffffffffffffffffffffffffffffffffffff16815260200190815260200160002060009054906101000a900460ff16151514610882576040517f08c379a00000000000000000000000000000000000000000000000000000000081526004016108799061100c565b60405180910390fd5b60011515600360008473ffffffffffffffffffffffffffffffffffffffff1673ffffffffffffffffffffffffffffffffffffffff168152602001908152602001600020826040516108d39190610d87565b908152602001604051809103902060009054906101000a900460ff16151514610931576040517f08c379a00000000000000000000000000000000000000000000000000000000081526004016109289061109e565b60405180910390fd5b600360008373ffffffffffffffffffffffffffffffffffffffff1673ffffffffffffffffffffffffffffffffffffffff1681526020019081526020016000208160405161097e9190610d87565b908152602001604051809103902060006101000a81549060ff02191690555050565b6000604051905090565b600080fd5b600080fd5b600080fd5b600080fd5b6000601f19601f8301169050919050565b7f4e487b7100000000000000000000000000000000000000000000000000000000600052604160045260246000fd5b610a07826109be565b810181811067ffffffffffffffff82111715610a2657610a256109cf565b5b80604052505050565b6000610a396109a0565b9050610a4582826109fe565b919050565b600067ffffffffffffffff821115610a6557610a646109cf565b5b610a6e826109be565b9050602081019050919050565b82818337600083830152505050565b6000610a9d610a9884610a4a565b610a2f565b905082815260208101848484011115610ab957610ab86109b9565b5b610ac4848285610a7b565b509392505050565b600082601f830112610ae157610ae06109b4565b5b8135610af1848260208601610a8a565b91505092915050565b600073ffffffffffffffffffffffffffffffffffffffff82169050919050565b6000610b2582610afa565b9050919050565b610b3581610b1a565b8114610b4057600080fd5b50565b600081359050610b5281610b2c565b92915050565b60008060408385031215610b6f57610b6e6109aa565b5b600083013567ffffffffffffffff811115610b8d57610b8c6109af565b5b610b9985828601610acc565b9250506020610baa85828601610b43565b9150509250929050565b600060208284031215610bca57610bc96109aa565b5b6000610bd884828501610b43565b91505092915050565b60008060408385031215610bf857610bf76109aa565b5b6000610c0685828601610b43565b925050602083013567ffffffffffffffff811115610c2757610c266109af565b5b610c3385828601610acc565b9150509250929050565b60008115159050919050565b610c5281610c3d565b82525050565b6000602082019050610c6d6000830184610c49565b92915050565b600082825260208201905092915050565b7f4f6e6c792061206d616e75666163747572696e6720756e69742063616e20616460008201527f642070726f647563747300000000000000000000000000000000000000000000602082015250565b6000610ce0602a83610c73565b9150610ceb82610c84565b604082019050919050565b60006020820190508181036000830152610d0f81610cd3565b9050919050565b600081519050919050565b600081905092915050565b60005b83811015610d4a578082015181840152602081019050610d2f565b60008484015250505050565b6000610d6182610d16565b610d6b8185610d21565b9350610d7b818560208601610d2c565b80840191505092915050565b6000610d938284610d56565b915081905092915050565b7f4f6e6c792061207265676973746572656420636f6d70616e792063616e20616460008201527f64206d616e756661637475726572730000000000000000000000000000000000602082015250565b6000610dfa602f83610c73565b9150610e0582610d9e565b604082019050919050565b60006020820190508181036000830152610e2981610ded565b9050919050565b7f4f6e6c792074686520636f6d70616e792063616e2072656d6f7665206974732060008201527f73616c65736d656e000000000000000000000000000000000000000000000000602082015250565b6000610e8c602883610c73565b9150610e9782610e30565b604082019050919050565b60006020820190508181036000830152610ebb81610e7f565b9050919050565b7f4f6e6c79206120636f6d70616e792063616e206164642073616c65736d656e00600082015250565b6000610ef8601f83610c73565b9150610f0382610ec2565b602082019050919050565b60006020820190508181036000830152610f2781610eeb565b9050919050565b7f4f6e6c7920746865206f776e65722063616e2061646420636f6d70616e696573600082015250565b6000610f64602083610c73565b9150610f6f82610f2e565b602082019050919050565b60006020820190508181036000830152610f9381610f57565b9050919050565b7f4f6e6c7920616e20617574686f72697a65642073616c65736d616e2063616e2060008201527f72656d6f76652070726f64756374730000000000000000000000000000000000602082015250565b6000610ff6602f83610c73565b915061100182610f9a565b604082019050919050565b6000602082019050818103600083015261102581610fe9565b9050919050565b7f5468652070726f64756374206e6f7420696e2074686520626c6f636b6368616960008201527f6e00000000000000000000000000000000000000000000000000000000000000602082015250565b6000611088602183610c73565b91506110938261102c565b604082019050919050565b600060208201905081810360008301526110b78161107b565b905091905056fea26469706673582212206e548a5adfb5c0e199144a5e353fa9c7399bdb4c9b304f6254350fcfdb43eb9564736f6c634300081c0033",
  "linkReferences": {},
  "deployedLinkReferences": {}
}